{
  "contractName": "ValuCoin",
  "abi": [
    {
      "inputs": [],
      "stateMutability": "nonpayable",
      "type": "constructor"
    },
    {
      "inputs": [
        {
          "internalType": "uint256",
          "name": "",
          "type": "uint256"
        }
      ],
      "name": "assets",
      "outputs": [
        {
          "internalType": "uint256",
          "name": "id",
          "type": "uint256"
        },
        {
          "internalType": "string",
          "name": "name",
          "type": "string"
        },
        {
          "internalType": "uint256",
          "name": "value",
          "type": "uint256"
        },
        {
          "internalType": "address",
          "name": "currentOwner",
          "type": "address"
        },
        {
          "internalType": "bool",
          "name": "exists",
          "type": "bool"
        }
      ],
      "stateMutability": "view",
      "type": "function",
      "constant": true
    },
    {
      "inputs": [],
      "name": "owner",
      "outputs": [
        {
          "internalType": "address",
          "name": "",
          "type": "address"
        }
      ],
      "stateMutability": "view",
      "type": "function",
      "constant": true
    },
    {
      "inputs": [
        {
          "internalType": "uint256",
          "name": "_id",
          "type": "uint256"
        },
        {
          "internalType": "string",
          "name": "_name",
          "type": "string"
        },
        {
          "internalType": "uint256",
          "name": "_value",
          "type": "uint256"
        }
      ],
      "name": "addAsset",
      "outputs": [],
      "stateMutability": "nonpayable",
      "type": "function"
    },
    {
      "inputs": [
        {
          "internalType": "uint256",
          "name": "_id",
          "type": "uint256"
        },
        {
          "internalType": "address",
          "name": "_newOwner",
          "type": "address"
        }
      ],
      "name": "transferAsset",
      "outputs": [],
      "stateMutability": "nonpayable",
      "type": "function"
    },
    {
      "inputs": [
        {
          "internalType": "uint256",
          "name": "_id",
          "type": "uint256"
        }
      ],
      "name": "getAsset",
      "outputs": [
        {
          "internalType": "string",
          "name": "",
          "type": "string"
        },
        {
          "internalType": "uint256",
          "name": "",
          "type": "uint256"
        },
        {
          "internalType": "address",
          "name": "",
          "type": "address"
        }
      ],
      "stateMutability": "view",
      "type": "function",
      "constant": true
    }
  ],
  "bytecode": "0x608060405234801561001057600080fd5b50336000806101000a81548173ffffffffffffffffffffffffffffffffffffffff021916908373ffffffffffffffffffffffffffffffffffffffff16021790555061103c806100606000396000f3fe608060405234801561001057600080fd5b50600436106100575760003560e01c80638da5cb5b1461005c578063cf35bdd01461007a578063e783080c146100ae578063eac8f5b8146100ca578063fa62ee8d146100fc575b600080fd5b610064610118565b6040516100719190610784565b60405180910390f35b610094600480360381019061008f91906107e9565b61013c565b6040516100a59594939291906108d0565b60405180910390f35b6100c860048036038101906100c39190610a5f565b610227565b005b6100e460048036038101906100df91906107e9565b610425565b6040516100f393929190610ace565b60405180910390f35b61011660048036038101906101119190610b38565b6105e3565b005b60008054906101000a900473ffffffffffffffffffffffffffffffffffffffff1681565b600160205280600052604060002060009150905080600001549080600101805461016590610ba7565b80601f016020809104026020016040519081016040528092919081815260200182805461019190610ba7565b80156101de5780601f106101b3576101008083540402835291602001916101de565b820191906000526020600020905b8154815290600101906020018083116101c157829003601f168201915b5050505050908060020154908060030160009054906101000a900473ffffffffffffffffffffffffffffffffffffffff16908060030160149054906101000a900460ff16905085565b60008054906101000a900473ffffffffffffffffffffffffffffffffffffffff1673ffffffffffffffffffffffffffffffffffffffff163373ffffffffffffffffffffffffffffffffffffffff16146102b5576040517f08c379a00000000000000000000000000000000000000000000000000000000081526004016102ac90610c24565b60405180910390fd5b6001600084815260200190815260200160002060030160149054906101000a900460ff1615610319576040517f08c379a000000000000000000000000000000000000000000000000000000000815260040161031090610c90565b60405180910390fd5b6040518060a0016040528084815260200183815260200182815260200160008054906101000a900473ffffffffffffffffffffffffffffffffffffffff1673ffffffffffffffffffffffffffffffffffffffff16815260200160011515815250600160008581526020019081526020016000206000820151816000015560208201518160010190816103ab9190610e5c565b506040820151816002015560608201518160030160006101000a81548173ffffffffffffffffffffffffffffffffffffffff021916908373ffffffffffffffffffffffffffffffffffffffff16021790555060808201518160030160146101000a81548160ff021916908315150217905550905050505050565b60606000806001600085815260200190815260200160002060030160149054906101000a900460ff1661048d576040517f08c379a000000000000000000000000000000000000000000000000000000000815260040161048490610f7a565b60405180910390fd5b6000600160008681526020019081526020016000206040518060a0016040529081600082015481526020016001820180546104c790610ba7565b80601f01602080910402602001604051908101604052809291908181526020018280546104f390610ba7565b80156105405780601f1061051557610100808354040283529160200191610540565b820191906000526020600020905b81548152906001019060200180831161052357829003601f168201915b50505050508152602001600282015481526020016003820160009054906101000a900473ffffffffffffffffffffffffffffffffffffffff1673ffffffffffffffffffffffffffffffffffffffff1673ffffffffffffffffffffffffffffffffffffffff1681526020016003820160149054906101000a900460ff1615151515815250509050806020015181604001518260600151935093509350509193909250565b6001600083815260200190815260200160002060030160149054906101000a900460ff16610646576040517f08c379a000000000000000000000000000000000000000000000000000000000815260040161063d90610f7a565b60405180910390fd5b6001600083815260200190815260200160002060030160009054906101000a900473ffffffffffffffffffffffffffffffffffffffff1673ffffffffffffffffffffffffffffffffffffffff163373ffffffffffffffffffffffffffffffffffffffff16146106ea576040517f08c379a00000000000000000000000000000000000000000000000000000000081526004016106e190610fe6565b60405180910390fd5b806001600084815260200190815260200160002060030160006101000a81548173ffffffffffffffffffffffffffffffffffffffff021916908373ffffffffffffffffffffffffffffffffffffffff1602179055505050565b600073ffffffffffffffffffffffffffffffffffffffff82169050919050565b600061076e82610743565b9050919050565b61077e81610763565b82525050565b60006020820190506107996000830184610775565b92915050565b6000604051905090565b600080fd5b600080fd5b6000819050919050565b6107c6816107b3565b81146107d157600080fd5b50565b6000813590506107e3816107bd565b92915050565b6000602082840312156107ff576107fe6107a9565b5b600061080d848285016107d4565b91505092915050565b61081f816107b3565b82525050565b600081519050919050565b600082825260208201905092915050565b60005b8381101561085f578082015181840152602081019050610844565b60008484015250505050565b6000601f19601f8301169050919050565b600061088782610825565b6108918185610830565b93506108a1818560208601610841565b6108aa8161086b565b840191505092915050565b60008115159050919050565b6108ca816108b5565b82525050565b600060a0820190506108e56000830188610816565b81810360208301526108f7818761087c565b90506109066040830186610816565b6109136060830185610775565b61092060808301846108c1565b9695505050505050565b600080fd5b600080fd5b7f4e487b7100000000000000000000000000000000000000000000000000000000600052604160045260246000fd5b61096c8261086b565b810181811067ffffffffffffffff8211171561098b5761098a610934565b5b80604052505050565b600061099e61079f565b90506109aa8282610963565b919050565b600067ffffffffffffffff8211156109ca576109c9610934565b5b6109d38261086b565b9050602081019050919050565b82818337600083830152505050565b6000610a026109fd846109af565b610994565b905082815260208101848484011115610a1e57610a1d61092f565b5b610a298482856109e0565b509392505050565b600082601f830112610a4657610a4561092a565b5b8135610a568482602086016109ef565b91505092915050565b600080600060608486031215610a7857610a776107a9565b5b6000610a86868287016107d4565b935050602084013567ffffffffffffffff811115610aa757610aa66107ae565b5b610ab386828701610a31565b9250506040610ac4868287016107d4565b9150509250925092565b60006060820190508181036000830152610ae8818661087c565b9050610af76020830185610816565b610b046040830184610775565b949350505050565b610b1581610763565b8114610b2057600080fd5b50565b600081359050610b3281610b0c565b92915050565b60008060408385031215610b4f57610b4e6107a9565b5b6000610b5d858286016107d4565b9250506020610b6e85828601610b23565b9150509250929050565b7f4e487b7100000000000000000000000000000000000000000000000000000000600052602260045260246000fd5b60006002820490506001821680610bbf57607f821691505b602082108103610bd257610bd1610b78565b5b50919050565b7f4f6e6c7920746865206f776e65722063616e20616464206173736574732e0000600082015250565b6000610c0e601e83610830565b9150610c1982610bd8565b602082019050919050565b60006020820190508181036000830152610c3d81610c01565b9050919050565b7f417373657420494420616c7265616479206578697374732e0000000000000000600082015250565b6000610c7a601883610830565b9150610c8582610c44565b602082019050919050565b60006020820190508181036000830152610ca981610c6d565b9050919050565b60008190508160005260206000209050919050565b60006020601f8301049050919050565b600082821b905092915050565b600060088302610d127fffffffffffffffffffffffffffffffffffffffffffffffffffffffffffffffff82610cd5565b610d1c8683610cd5565b95508019841693508086168417925050509392505050565b6000819050919050565b6000610d59610d54610d4f846107b3565b610d34565b6107b3565b9050919050565b6000819050919050565b610d7383610d3e565b610d87610d7f82610d60565b848454610ce2565b825550505050565b600090565b610d9c610d8f565b610da7818484610d6a565b505050565b5b81811015610dcb57610dc0600082610d94565b600181019050610dad565b5050565b601f821115610e1057610de181610cb0565b610dea84610cc5565b81016020851015610df9578190505b610e0d610e0585610cc5565b830182610dac565b50505b505050565b600082821c905092915050565b6000610e3360001984600802610e15565b1980831691505092915050565b6000610e4c8383610e22565b9150826002028217905092915050565b610e6582610825565b67ffffffffffffffff811115610e7e57610e7d610934565b5b610e888254610ba7565b610e93828285610dcf565b600060209050601f831160018114610ec65760008415610eb4578287015190505b610ebe8582610e40565b865550610f26565b601f198416610ed486610cb0565b60005b82811015610efc57848901518255600182019150602085019450602081019050610ed7565b86831015610f195784890151610f15601f891682610e22565b8355505b6001600288020188555050505b505050505050565b7f417373657420646f6573206e6f742065786973742e0000000000000000000000600082015250565b6000610f64601583610830565b9150610f6f82610f2e565b602082019050919050565b60006020820190508181036000830152610f9381610f57565b9050919050565b7f4e6f7420746865206f776e65722e000000000000000000000000000000000000600082015250565b6000610fd0600e83610830565b9150610fdb82610f9a565b602082019050919050565b60006020820190508181036000830152610fff81610fc3565b905091905056fea2646970667358221220791881abe610572c36120de2bdb27f9a223e73ae2854984c7c9d7cd218ec4ebf64736f6c63430008130033",
  "immutableReferences": {},
  "source": "// SPDX-License-Identifier: MIT\npragma solidity 0.8.19;\n\ncontract ValuCoin {\n    address public owner;\n\n    struct Asset {\n        uint id;\n        string name;\n        uint256 value;\n        address currentOwner;\n        bool exists;\n    }\n\n    mapping(uint => Asset) public assets;\n\n    constructor() {\n        owner = msg.sender;\n    }\n\n    function addAsset(uint _id, string memory _name, uint256 _value) public {\n        require(msg.sender == owner, \"Only the owner can add assets.\");\n        require(!assets[_id].exists, \"Asset ID already exists.\");\n        assets[_id] = Asset(_id, _name, _value, owner, true);\n    }\n\n    function transferAsset(uint _id, address _newOwner) public {\n        require(assets[_id].exists, \"Asset does not exist.\");\n        require(msg.sender == assets[_id].currentOwner, \"Not the owner.\");\n        assets[_id].currentOwner = _newOwner;\n    }\n\n    function getAsset(uint _id) public view returns (string memory, uint256, address) {\n        require(assets[_id].exists, \"Asset does not exist.\");\n        Asset memory asset = assets[_id];\n        return (asset.name, asset.value, asset.currentOwner);\n    }\n}\n",
  "sourcePath": "C:\\Users\\HP 640 G5\\Desktop\\valucoin\\contracts\\ValuCoin.sol",
  "compiler": {
    "name": "solc",
    "version": "0.8.19+commit.7dd6d404.Emscripten.clang"
  },
  "schemaVersion": "3.4.10",
  "updatedAt": "2024-09-22T06:41:40.465Z",
  "networkType": "ethereum",
  "devdoc": {
    "kind": "dev",
    "methods": {},
    "version": 1
  },
  "userdoc": {
    "kind": "user",
    "methods": {},
    "version": 1
  }
}